:1000000055C064C063C062C061C060C05FC05EC0F4
:100010005DC05CC05BC047C259C058C057C056C025
:1000200055C054C053C0F6F7F8F9FAFBFCFDFEFFCB
:10003000000102030405060708090A0B0C0D0E0F48
:10004000101112131415161718191A1B1C1D1E1F38
:10005000202122232425262728292A2B2C2D2E2F28
:10006000303132333435363738F7F0EAE3DDD6D085
:10007000CAC4BEB8B2ACA6A19B96918C87837E7A87
:1000800075716D6965625E5B5754514E4C4A4744C9
:10009000423F3D3B39363433312F2D2C2A28272639
:1000A000242322211F1E1D1C1B1A191811241FBED8
:1000B000CFE5D4E0DEBFCDBF20E0A0E6B0E001C0D8
:1000C0001D92A236B207E1F7CDD2EBC299CF88E9F3
:1000D0008AB986E880BD8CE089B908955D9BFECF22
:1000E0008CB908955F9BFECF8CB1089514BA87E850
:1000F00086B9089583EE87B9369A349BFECF349A39
:1001000045B1E9E6F0E084914817F8F490E09F5F8C
:10011000292F30E0F901E759FF4F84914817B8F3D0
:10012000B901615071098491FB01E759FF4FE491D6
:10013000542F581BE41BE51718F49150292F30E079
:10014000F901EA5DFF4F8491089520E030E06FEF00
:100150007FEF90E0E8CF82EE87B9369A349BFECFEE
:10016000349A45B1E9E6F0E084914817F8F490E05C
:100170009F5F292F30E0F901E759FF4F849148171D
:10018000B8F3B901615071098491FB01E759FF4F40
:10019000E491542F581BE41BE51718F49150292FB4
:1001A00030E0F901EA5DFF4F8491089520E030E0EE
:1001B0006FEF7FEF90E0E8CF81E785BD0895BB9AB0
:1001C0000895BB988FEF83BDBB9A0895809583BD3A
:1001D000BB9A0895C9E6D0E012EE74E517B9369AD5
:1001E000349BFECF349A65B149E650E0FE0184911C
:1001F000681778F580E08F5F282F30E0A901475914
:100200005F4FFA0194916917B0F3D9011197FA0180
:100210004491FD01E759FF4FE491962F941BE61B93
:10022000E91718F48150282F30E0F901EA5DFF4FFB
:1002300084915D9BFECF7CB95D9BFECF8CB9FFE7BF
:100240002AE186E0F15020408040E1F700C0000044
:10025000C5CF20E030E0AFEFBFEF80E0D8CF181679
:100260005CF481B3806C81BB82B38F7382BB979A3D
:1002700081E983BDBB9A0895811105C0BB988FEFBA
:1002800083BDBB9A089581B3806C81BB82B38F73A9
:1002900082BB969A89EB83BDBB9A089590916100C9
:1002A000891709F442C09FEF93BDBB9A90916100FA
:1002B0008917C4F081B3806C81BB82B38F7382BB1A
:1002C000969A80916000809583BDBB9A16163CF586
:1002D00080916000853030F1809160008250809381
:1002E0006000089581B3806C81BB82B38F7382BB41
:1002F000979A80916000809583BDBB9A67FD21C06D
:10030000662379F0809160008B5F8093600080911C
:1003100060008F3630F08EE68093600008956111A2
:100320001EC00895109260000895BB988FEF83BDA2
:10033000BB9A80916000809583BDBB9A109260004B
:10034000089580916000893130F08091600085507F
:1003500080936000089584E1809360000895809107
:1003600060008E5F80936000809160008333C8F2EC
:1003700082E380936000089590916100891759F09D
:100380009FEF93BDBB9A90916100891714F083E4AD
:10039000089586E40895BB988FEF83BDBB9A88E5E6
:1003A0000895E82EE9DF92E390936000833419F416
:1003B0008FE080936000C9E6D0E082EEC82E94E51D
:1003C000D92E0FEF29EBF22E11E9C7B8369A349BDC
:1003D000FECF349A75B149E650E0FE01849178175A
:1003E00008F051C090E09F5F292F30E0A9014759E4
:1003F0005F4FFA0164917617B0F3D9011197FA01B2
:100400004491FD01E759FF4FE491872F841BE71BBF
:10041000E81718F49150292F30E0F901EA5DFF4FF9
:1004200024915D9BFECFDCB85D9BFECF2CB9622F83
:100430006E19862F062E000C990B97FD20C002978F
:10044000ACF01616B4F481B3806C81BB82B38F73A9
:1004500082BB979A13BDBB9AFFEF24E38CE0F15067
:1004600020408040E1F700C00000AFCF8E2D16DFA6
:10047000F3CF61110EC0BB9803BDBB9AEDCF919530
:1004800081959109DCCF20E030E0AFEFBFEF90E045
:10049000B6CF81B3806C81BB82B38F7382BB969AD7
:1004A000F3BCBB9AD9CF1F920F920FB60F921124B3
:1004B0005F9BFECF8CB15D9BFECF94E49CB95D9BAE
:1004C000FECF8CB9803549F0E4F08435A9F0883549
:1004D00009F450C08135B9F1FFCF5F9BFECF8CB1DD
:1004E0007894809583BDBB9A81B3806C81BB82B3C5
:1004F0008F7382BB979A35C05F9BFECF8CB1789487
:1005000050DF833489F08634D1F55F9BFECF8CB108
:100510007894809583BDBB9A81B3806C81BB82B394
:100520008F7382BB979A56DE5F9BFECF8CB1789417
:10053000809583BDBB9A81B3806C81BB82B38F737E
:1005400082BB969A47DE5F9BFECF8CB178948095F4
:1005500083BDBB9A81B3806C81BB82B38F7382BB36
:10056000969A2FEF89E698E1215080409040E1F77C
:1005700000C00000BB988FEF83BDBB9A2BDEACCFD1
:10058000833459F0863409F0089581B3806C81BBBF
:1005900082B38F7382BB979A089581B3806C81BBBD
:1005A00082B38F7382BB969A0895909161008917E8
:1005B000C9F09FEF93BDBB9A9091610089174CF0F1
:1005C00081B3806C81BB82B38F7382BB969A83E4C4
:1005D000089581B3806C81BB82B38F7382BB979A7D
:1005E00086E40895BB988FEF83BDBB9A88E5089594
:1005F00081B3806C81BB82B38F7382BB969A08955E
:1006000081B3806C81BB82B38F7382BB979A08954C
:10061000E9E6F0E094918917F8F490E09F5F292FC4
:1006200030E0F901E759FF4F44918417B8F3B9015D
:10063000615071094491FB01E759FF4FE491582F34
:10064000541BE81BE51718F49150292F30E0F901ED
:10065000EA5DFF4F8491089520E030E06FEF7FEF77
:1006600090E0E8CF88E98AB986E880BD8CE089B956
:1006700014BA87E886B981E785BD3CDD5D9BFECF76
:1006800091E49CB95D9BFECF8CB965DD5D9BFECF8F
:1006900094E59CB95D9BFECF8CB980936100789402
:0606A000FFCFF894FFCF2C
:00000001FF
